:020000040800F2
:10000000C0040020C10100087B120008FF11000895
:1000100079120008A9020008E1170008000000009A
:100020000000000000000000000000009F12000817
:1000300035030008000000009D120008A11200080E
:10004000DB010008DB010008DB010008DB01000820
:10005000DB010008DB010008DB010008DB01000810
:10006000DB010008DB010008DB010008DB01000800
:10007000DB010008DB010008DB010008DB010008F0
:10008000AD020008DB010008DB010008DB0100080D
:10009000DB010008DB010008DB010008DB010008D0
:1000A000DB010008DB010008DB010008DB010008C0
:1000B000DB010008DB010008DB010008DB010008B0
:1000C000DB010008DB010008DB010008DB010008A0
:1000D000DB010008DB010008D5170008DB01000880
:1000E000DB010008DB010008DB010008DB01000880
:1000F000DB010008DB010008DB010008DB01000870
:10010000DB010008DB010008DB010008DB0100085F
:10011000DB010008DB010008DB010008DB0100084F
:10012000DB010008DB010008DB010008DB0100083F
:10013000DB010008DB010008DB010008DB0100082F
:10014000DB010008DB010008DB010008DB0100081F
:10015000DB010008DB010008DB010008DB0100080F
:10016000DB010008DB010008DB010008DB010008FF
:10017000DB010008DB010008DB01000800000000D3
:10018000DB010008DB010008DB010008DB010008DF
:10019000DB010008DB010008DB010008DB010008CF
:1001A000DB010008DB010008DB010008DFF80CD0F0
:1001B00000F068F80048004705180008C004002057
:1001C0000648804706480047FEE7FEE7FEE7FEE7F1
:1001D000FEE7FEE7FEE7FEE7FEE7FEE75513000851
:1001E000AD0100082DE9F05F0546002092469B46D0
:1001F00088460646814640241BE02846414647463D
:10020000224600F02FF853465A46C01A914110D3A7
:1002100011461846224600F016F82D1A67EB010821
:100220004F4622460120002100F00DF817EB00098F
:100230004E41201EA4F10104DFDC484631462A4627
:100240004346BDE8F09F202A04DB203A00FA02F181
:10025000002070479140C2F1200320FA03F31943B4
:1002600090407047202A04DB203A21FA02F0002156
:10027000704721FA02F3D040C2F1200291400843B6
:1002800019467047064C074D06E0E06840F0010350
:1002900094E8070098471034AC42F6D3FFF78AFF82
:1002A000B0180008D0180008FEE70000014800F070
:1002B00055B800006000002001681823CAB2103A47
:1002C000B2FBF3F2054B6FF30901032A9B5CC36594
:1002D00000D9091D81650846704700009018000884
:1002E00010B5014600208B698A6A4FF0C07453B183
:1002F000B3F5005F15D072B1012A0CD0022A0AD0E2
:10030000032A09D104E01AB1012A06D0022A03D136
:10031000C96AC90100D5012010BDC96AA142FAD03D
:1003200010BD002AF7D0012AF2D0022AF3D0032A06
:10033000F3D010BD704790F83510022903D080210A
:10034000416501207047052180F83510006801687B
:1003500021F0010101600020704700002DE9F84301
:1003600004464FF00009CDF8009063484FF4165151
:10037000A56D0068B0FBF1F72E6894F85C100820BA
:1003800000FA01F131420FD021680A6852070BD5FB
:100390000A6822F004020A6094F85C108840A860A1
:1003A000606D40F00100606594F85C104FF001084A
:1003B00008FA01F0304208D021684969090604D5DD
:1003C000A860606D40F00200606594F85C10042045
:1003D0008840304208D021680968890704D5A860A0
:1003E000606D40F00400606594F85C101020884057
:1003F000304218D021680968090714D5A860206820
:100400000168490304D50068000308D5A16C07E022
:100410000168C90503D4016821F008010160216C5D
:1004200009B12046884794F85C102020884030426B
:1004300031D021680968C9062DD5A86094F8350027
:1004400005282068016806D0490347D500680003E5
:100450001DD4616C1CE021F0160101602068416927
:1004600021F080014161206C08B9A06C20B12068A6
:10047000016821F00801016094F85C103F20884079
:10048000A86084F8349084F83580216D1FE0E16B1A
:1004900009B120468847606D00282BD0606DC007E9
:1004A00014D0052084F835002068016821F001018E
:1004B00001600098401C0090B84203D82068006892
:1004C000C007F6D184F8349084F83580E16C0029B7
:1004D00010D001B02046BDE8F04308470168C905C7
:1004E000D5D4016821F01001016084F8349084F8BB
:1004F0003580CCE7BDE8F8831C0000202DE9F041F1
:10050000044600F067F906465CB1002584F83450D3
:10051000022084F835002068016821F001010160A3
:100520000DE00120BDE8F08100F054F9801B0528A2
:1005300005D920206065032084F83500F2E72068A3
:100540000068C007F0D12268116820480140D4E952
:1005500001031843D4E9033633431843636918434E
:10056000A3691843E3691843236A18430843616A7F
:10057000042903D1D4E90B13194308431060206800
:100580004069666A20F0070130460E4301270428BF
:100590000CD1A06A0643E06A40B12046FFF7A0FEF6
:1005A00020B14020606584F83570BAE72068466164
:1005B0002046FFF781FE94F85C203F219140816046
:1005C000656584F835700020ACE700003F8010F0CE
:1005D00070B5044600F0FEF80546601C02D00448E1
:1005E0000078044400F0F6F8401BA042FAD370BD36
:1005F000100000202DE9F84FDFF890B100224FF0F5
:1006000001084FF0030A4FF00F090BF1040E00BF71
:100610000B6808FA02F42340A3426ED14D68022D04
:1006200001D0122D0ED1D50800EB850CDCF820503E
:100630005607F70E09FA07F6B5430E69BE402E437A
:10064000CCF82060066855000F790AFA05FC07F01F
:10065000030726EA0C06AF40374307604E68012EB9
:1006600005D0022E03D0112E01D0122E0ED1876894
:10067000CE6827EA0C07AE403E4386604668A64334
:100680000C79C4F30014944034434460C4688E6809
:1006900024EA0C04AE402643C6604C68E4006FD5E3
:1006A0003B4C256845F480452560246822F003050D
:1006B00004F480440094374C2E19D6F80848950766
:1006C0002F0F09FA07F5AC43334DA84201D100259D
:1006D0002EE0324DA84201D1012529E0304DA8423B
:1006E00001D1022524E02F4DA84201D103251FE0AE
:1006F0002D4DA84202D104251AE041E02B4DA8421D
:1007000001D1052514E02A4DA84201D106250FE0AC
:10071000284DA84201D107250AE0274DA84201D162
:10072000082505E0254DA84201D1092500E00A254C
:10073000BD402543C6F80858DBF800405D464E68CA
:100740009C43F60300D51C432C60DEF80040754640
:100750004E689C43B60300D51C432C600B4D0835F6
:100760002C684E689C43F60200D51C432C60074D54
:100770000C352C684E689C43B60200D51C432C6097
:10078000521C102AFFF444AFBDE8F88F003C014032
:1007900044380240003001400000024000040240A2
:1007A00000080240000C0240001002400014024009
:1007B00000180240001C02400020024000240240B9
:1007C00042694A40426170470AB181617047090439
:1007D000FBE700000148806870470000100000201F
:1007E000024881680278114481607047100000203F
:1007F0000B4810B5016841F400710160016841F4D3
:1008000080610160016841F480710160032000F0A3
:1008100097F8002000F006F800F024F8002010BD42
:10082000003C024070B50D4D04464FF47A712878B3
:10083000B1FBF0F00A490968B1FBF0F000F053FB9E
:1008400048B9102C07D200222146501E00F058F85B
:1008500000206C6070BD012070BD00001000002001
:100860001C0000201F4808B5016841F48041016068
:10087000006800F4804000901A48001F016841F0B1
:1008800080510160006800F080500090032000F06B
:1008900057F8002211466FF00B0000F031F80022EB
:1008A00011466FF00A0000F02BF8002211466FF09D
:1008B000090000F025F800221146501F00F020F832
:1008C00000221146101F00F01BF800221146901E56
:1008D00000F016F80022BDE808401146501E00F056
:1008E0000FB800004438024000F01F02012191407F
:1008F0004009800000F1E020C0F8001170470000BE
:10090000F0B40E4B1B680C46C3F30223C3F107057A
:10091000042D00D90425191D072901D2002300E068
:10092000DB1E012606FA05F1491E214099409E4032
:10093000761E16403143F0BC00F0A0BC0CED00E088
:10094000064900F0070208684FF6FF03184040EA26
:100950000220034A10430860704700000CED00E0DD
:100960000000FA052DE9F8431748016841F080516D
:1009700001600068154F00F08050012600903E6431
:10098000FFF728FF05464FF47A78114C05E000BFC9
:10099000FFF720FF401B40450DD86068C003F7D526
:1009A0007E64FFF717FF0546464607E0FFF712FF94
:1009B000401BB04202D90320BDE8F8836068800381
:1009C000F4D50020F8E700004038024000000E4255
:1009D000007000402DE9F0470E46050065D0DFF8B5
:1009E0001481D8F80000F7B200F00F00B04207D22F
:1009F00088F80070D8F8000000F00F00B04254D121
:100A000028683D4C810712D5400703D5206840F483
:100A1000E05020602878000703D5206840F460404B
:100A200020602068A96820F0F00008432060287842
:100A3000C0072DD0304968680839012812D0022833
:100A400013D0032811D00968890700292DDA2168FD
:100A500021F0030101432160FFF7BCFE814641F212
:100A6000883A0EE009688903EFE709688901ECE735
:100A7000FFF7B0FEA0EB0901514502D90320BDE804
:100A8000F0872068696800F00C00B0EB810FEFD1AF
:100A9000D8F80010404601F00F01B14207D90770A5
:100AA000006800F00F00B04201D00120E7E728788D
:100AB000400705D52068E96820F4E050084320602D
:100AC0002878000706D52068296920F4604040EAAC
:100AD000C100206000F03CF82168084AC1F303110E
:100AE000515CC840064908600020FFF79BFE0020CB
:100AF000C5E70000003C0240083802409818000892
:100B00001C00002001480068704700001C00002005
:100B10000448054900680968044AC1F38221515C10
:100B2000C84070471C00002008380240A818000880
:100B30000448054900680968044AC1F34231515C20
:100B4000C84070471C00002008380240A818000860
:100B5000154810B5006810F00C02144813D041106D
:100B6000042A0FD0082A0ED10F4C241F22682368B4
:100B700002F03F025B0207D52068C0F38810A0FB9B
:100B8000010106E0084610BD2168C1F38811A1FBF0
:100B900000010023FFF726FB2168C1F30141491C36
:100BA0004900B0FBF1F010BD083802400024F40009
:100BB0002DE9F84F050076D02878DFF8F8B2BE4C62
:100BC000C00749D0DBF800105846C1F38101012964
:100BD00008D00068C0F3810002280AD1201D0068F7
:100BE000400206D52068800336D568680028E2D028
:100BF00032E06868B0F5803F10D0B0F5A02F2068D3
:100C000010D020F480302060206820F48020206004
:100C10006868A0B1FFF7DEFD06460CE0206840F4EE
:100C20008030F4E740F480202060F7E7FFF7D2FD42
:100C3000801B642873D820688003F7D50CE0FFF789
:100C4000C9FD064605E000BFFFF7C4FD801B642810
:100C5000F0D820688003F7D42878DFF86082800716
:100C60004FF000093ED5DBF80010584611F00C0F8C
:100C700009D00068C0F3810002280BD18D48001F05
:100C80000068400206D42068800715D5E86801286E
:100C900009D111E0E868B8B10120C8F80000FFF7F9
:100CA00099FD064605E002E1FFF794FD801B02284E
:100CB000C0D820688007F7D52068296920F0F8009F
:100CC00040EAC10020600DE0C8F80090FFF782FD07
:100CD000064604E0FFF77EFD801B02281FD820682F
:100CE0008007F7D42878000722D5724E74486969C6
:100CF0006C3671B101210160FFF76CFD074604E01D
:100D0000FFF768FDC01B022809D830688007F7D5B7
:100D10000EE0C0F80090FFF75DFD074605E083E0B8
:100D2000FFF758FDC01B02287ED830688007F7D433
:100D30002878400768D5DFF87CA100270AF1380A37
:100D4000DAF80000C0000BD4DAF8001041F080514E
:100D5000CAF80010DAF80000012700F08050009077
:100D6000584E3068C00510D4306840F48070306050
:100D7000FFF730FD009005E0FFF72CFD0099401AC9
:100D8000022851D83068C005F6D54A4EA8686836A2
:100D900001280FD00528306810D020F00100306005
:100DA000306820F004003060A868B8B1FFF712FD89
:100DB00000900FE0306840F00100F4E740F00400DC
:100DC0003060F7E7FFF706FD0099411A41F28830DD
:100DD000814264D830688007F4D50EE0FFF7FAFC52
:100DE000009007E0FFF7F6FC0099411A41F28830C5
:100DF000814254D830688007F4D42FB1DAF800105B
:100E000021F08051CAF80010A869C0B3DBF80010C7
:100E1000C1F3810102294AD00228484607D0C8F808
:100E20006000FFF7D7FC00E039E005463AE04746AE
:100E3000C8F86000FFF7CEFC064604E0FFF7CAFCE6
:100E4000801B02282BD820688001F7D4D5E9070140
:100E50000843A96A1C4A490802EB01416A6A41EA4F
:100E60008211084395F82C1040EA01611148001FD7
:100E7000016001203866FFF7ADFC054605E014E08F
:100E8000FFF7A8FC401B022809D820688001F7D58D
:100E90000BE000BFFFF79EFC401B022802D9032095
:100EA000BDE8F88F20688001F4D40020F8E7012025
:100EB000F6E70000083802400038024000004742D0
:100EC000800E4742007000400000FFFF4FF0E0211D
:100ED0000428086903D020F004000861704740F03E
:100EE0000400FAE7704710B5401EB0F1807F01D3CF
:100EF000012010BD4FF0E02460610F21601700F069
:100F0000BDF90020A06107202061002010BD10B5B0
:100F1000FFF7E8FF10BD704770B50268044610681F
:100F2000D168536910F00F0F50D003F0010501F4A0
:100F3000907635435DD0C20705D0CA0503D5E26B74
:100F400042F00102E263420705D5DA0703D0E26B03
:100F500042F00202E263820705D5DA0703D0E26BB2
:100F600042F00402E263020705D5DA0703D0E26B20
:100F700042F00802E263E26B002A33D0800604D517
:100F8000880602D5204600F025FA20684069E16B0A
:100F9000C0F38010090700D428B3204600F00CFAF3
:100FA0002068416949061AD5416921F04001416133
:100FB000606BA0B11B490165606BFFF7BCF90028AD
:100FC00010D0606B016DBDE870400847830610D5F6
:100FD0008B060ED52046BDE8704000F0FBB92046D8
:100FE000FFF799FF70BD2046FFF795FF0020E063F3
:100FF00070BD030606D50B0604D52046BDE870403B
:1010000000F084BB4006F3D54806F1D5D1682046F0
:1010100021F04001D160202184F8391000F0EEF871
:1010200070BD0000A913000870B5040004D094F846
:101030003900002510B106E0012070BD84F8385059
:10104000204600F023F8242084F839002068C16885
:1010500021F40051C160204600F002FA20680169C5
:1010600021F4904101612068416921F02A01416128
:101070002068C16841F40051C160E563202084F814
:10108000390084F83A00002070BD000070B50646B3
:1010900000681F4986B0884238D11E480025016883
:1010A00041F4003101600068694600F400300590A9
:1010B0000C20009002200190012002900320039058
:1010C000072004901448FFF795FA154C1348206048
:1010D0004FF00060C4E901054014C4E903506561A4
:1010E000A561E561256220466562FFF707FA18B140
:1010F00077210CA000F075FB7463002211462620B6
:10110000A663FFF7FDFB2620FFF7EEFB06B070BDE0
:101110000044004040380240000002408860024025
:10112000600000202E2E2F5372632F73746D3332A4
:10113000663478785F68616C5F6D73702E63000051
:1011400070472DE9F843044690F839001F461646CB
:101150000D46202850D1A5B19EB194F83800012841
:101160004AD0012084F838004FF00008C4F83C80D1
:10117000212084F83900FFF72DFBA6848146E68400
:1011800026E00120BDE8F883E08C401EE084A068E2
:101190004B46B0F5805F4FF000024FF080012046D3
:1011A000009703D000F0E3FAE8B90DE000F0DFFAB1
:1011B000C8B928882168C0F308004860206908B1D0
:1011C0006D1C05E0AD1C03E0216815F8010B4860BB
:1011D000E08C0028D8D14B460022402120460097C1
:1011E00000F0C5FA08B10320CCE7202084F83900CC
:1011F00084F838800020C5E70220C3E77047FEE787
:1012000030B51A4887B00024016841F080010160C0
:10121000016801F080010591016841F0040101605D
:10122000016801F004010591016841F001010160CC
:1012300000680F4D00F00100059000222021284693
:10124000FFF7C2FA0220CDE900046946094802947A
:10125000FFF7D0F9202000900120CDE90104694674
:1012600028460394FFF7C6F907B030BD3038024076
:101270000000024000080240FEE770470907090E1F
:10128000002806DA00F00F0000F1E02080F8141DBD
:10129000704700F1E02080F80014704770477047F5
:1012A00010B5FFF79DFABDE81040FFF730BE000013
:1012B00030B5264893B00025016841F080510160A7
:1012C000006800F0805011902148016841F44041CD
:1012D00001600068022400F4404011900120009059
:1012E000000401908001CDE9064008AA0420B42141
:1012F00082E813000B906846FFF75AFC00B1FEE746
:10130000FFF730FB00B1FEE70CA90F2081E83100A8
:101310004FF4A0500F904FF48050109005210CA86E
:10132000FFF758FB00B1FEE7FFF7ECFB4FF47A71D3
:10133000B0FBF1F0FFF7D7FD0420FFF7C7FD002257
:101340001146501EFFF7DCFA13B030BD40380240A2
:10135000007000401048016841F4700101600F48BE
:10136000016841F0010101600C4A0021083211605E
:1013700002680B4B1A400260031D0A4A1A60026899
:1013800022F48022026005480C30016002495806B0
:10139000803908607047000088ED00E000380240A6
:1013A000FFFFF6FE1030002410B5806B0021C185D0
:1013B000C184FFF7B0FD10BD0168CA6822F49072C5
:1013C000CA6001684A6922F001024A61202180F85E
:1013D0003A10704710B590F83A10222901D0022037
:1013E00010BD8168B1F5805F11D0016900290168E5
:1013F0001FD0496801F07F03816A4A1C82620B702A
:10140000C18D491E0904090CC18518D026E0026966
:10141000816A002A0268526805D0D2B20A80816AC5
:10142000491C8162ECE7C2F308020A80816A891CC8
:10143000F7E74A68816A4B1C83620A70E0E701683B
:10144000CA6822F49072CA6001684A6922F00102F7
:101450004A61202180F83A10FFF772FE002010BD8B
:101460002DE9F04104460068016921F44052E16829
:10147000114301612168C86849F20C6290432369F5
:10148000A268E5691A4363692B431A430243CA60A1
:101490002168486920F44072A06910434861E169FD
:1014A0006425B1F5004F9748974A21684FF03208FC
:1014B0003FD0914201D081427CD1FFF739FB00EB54
:1014C000C00101EB001061688900B0FBF1F6FFF785
:1014D0002FFB00EBC00101EB001061688900B0FB3D
:1014E000F1F0B0FBF5F06FF01801484306EB800116
:1014F00008EB0110B0FBF5F000F0F006FFF718FB69
:1015000000EBC00101EB001061688900B0FBF1F055
:10151000B0FBF5F006EB0016FFF70AFB00EBC0018D
:1015200001EB001061688900B0FBF1F7FFF700FBE9
:10153000D2E0914201D081423DD1FFF7F9FA00EBB0
:10154000C00101EB001061684900B0FBF1F0B0FB95
:10155000F5F00601FFF7ECFA00EBC00101EB00101B
:1015600061684900B0FBF1F7FFF7E2FA00EBC00158
:1015700001EB001061684900B0FBF1F0B0FBF5F041
:101580006FF01801484307EB800108EBC100B0FB86
:10159000F5F000F0F80006EB4006FFF7C9FA00EBA3
:1015A000C00101EB001061684900B0FBF1F7FFF7E3
:1015B000BFFA3CE055E0FFF7ABFA00EBC00101EBEE
:1015C000001061684900B0FBF1F0B0FBF5F00601D6
:1015D000FFF79EFA00EBC00101EB001061684900C3
:1015E000B0FBF1F7FFF794FA00EBC00101EB00103C
:1015F00061684900B0FBF1F0B0FBF5F06FF0180145
:10160000484307EB800108EBC100B0FBF5F000F0A8
:10161000F80006EB4006FFF77BFA00EBC00101EB98
:10162000001061684900B0FBF1F7FFF771FA00EBB9
:10163000C00101EB001061684900B0FBF1F0B0FBA4
:10164000F5F06FF01801484307EB800108EBC1008B
:10165000B0FBF5F000F00700216830448860BDE879
:10166000F081FFF755FA00EBC00101EB0010616853
:101670008900B0FBF1F6FFF74BFA00EBC00101EB7C
:10168000001061688900B0FBF1F0B0FBF5F06FF07D
:101690001801484306EB800108EB0110B0FBF5F0A0
:1016A00000F0F006FFF734FA00EBC00101EB001088
:1016B00061688900B0FBF1F0B0FBF5F006EB0016B5
:1016C000FFF726FA00EBC00101EB0010616889000A
:1016D000B0FBF1F7FFF71CFA00EBC00101EB0010C3
:1016E00061688900B0FBF1F0B0FBF5F06FF0180114
:1016F000484307EB800108EB0110B0FBF5F000F068
:101700000F00A9E7001401400010014090F83910C3
:10171000212901D0022070478168B1F5805F016AFC
:101720000BD04A1C0262026809785160C18C491EC4
:101730000904090CC1840ED017E009880268C1F3BE
:101740000801516001690029016A02D0491C016247
:10175000ECE7891CFBE70168CA6822F08002CA60D6
:101760000068C16841F04001C160002070472DE968
:10177000F041984617460E460446069D1DE0681C3B
:101780001BD02DB1FFF726F8A0EB0800A84214D912
:101790002068C16821F4D071C1602068416921F0DE
:1017A00001014161202084F8390084F83A000020CA
:1017B00084F838000320BDE8F0812068006836EA2C
:1017C000000004D00020B842D9D00020F3E7012067
:1017D000F9E700000148FFF79FBB00002000002050
:1017E000FEE7FEE702E008C8121F08C1002AFAD18E
:1017F00070477047002001E001C1121F002AFBD191
:101800007047000008B5FEF7F3FFFFF751FDFFF743
:10181000F7FC1A480024016841F4001101600068D7
:10182000224600F40010009021461020FFF768F8CF
:101830001020FFF759F81348114901604FF4E131C6
:10184000C0E901140C21C460C0E904418461C46191
:10185000FFF7EAFB00B1FEE70B4C4FF47A750A2361
:1018600006220A490748FFF76CFC20212046FEF7B4
:10187000A7FF2846FEF7ACFEF1E700003038024033
:101880000044004020000020000002400000002032
:1018900000061016000610160000000000000000F0
:1018A0000102030406070809000000000102030406
:1018B000D01800080000002020000000E4170008F5
:1018C000F018000820000020A0040000F417000811
:1018D00048656C6C6F20576F726C640D0A000000D5
:1018E0000100000010000000000000000024F400CF
:04000005080001AD41
:00000001FF
