:020000040800F2
:1000000028040020C1010008D30C0008CF0C000810
:10001000D10C0008DD020008050E000800000000F9
:10002000000000000000000000000000F70C0008C5
:10003000DF02000800000000F50C0008F90C0008C1
:10004000DB010008DB010008DB010008DB01000820
:10005000DB010008DB010008DB010008DB01000810
:10006000DB010008DB010008DB010008DB01000800
:10007000DB010008DB010008DB010008DB010008F0
:10008000DB010008DB010008DB010008DB010008E0
:10009000DB010008DB010008DB010008DB010008D0
:1000A000DB010008DB010008DB010008DB010008C0
:1000B000DB010008DB010008DB010008DB010008B0
:1000C000DB010008DB010008DB010008DB010008A0
:1000D000DB010008DB010008DB010008DB01000890
:1000E000DB010008DB010008DB010008DB01000880
:1000F000DB010008DB010008DB010008DB01000870
:10010000DB010008DB010008DB010008DB0100085F
:10011000DB010008DB010008DB010008DB0100084F
:10012000DB010008DB010008DB010008DB0100083F
:10013000DB010008DB010008DB010008DB0100082F
:10014000DB010008DB010008DB010008DB0100081F
:10015000DB010008DB010008DB010008DB0100080F
:10016000DB010008DB010008DB010008DB010008FF
:10017000DB010008DB010008DB01000800000000D3
:10018000DB010008DB010008DB010008DB010008DF
:10019000DB010008DB010008DB010008DB010008CF
:1001A000DB010008DB010008DB010008DFF80CD0F0
:1001B00000F082F800480047250E000828040020BF
:1001C0000648804706480047FEE7FEE7FEE7FEE7F1
:1001D000FEE7FEE7FEE7FEE7FEE7FEE7B10D0008FB
:1001E000AD0100082DE9F05F0546002092469B46D0
:1001F00088460646814640241BE02846414647463D
:10020000224600F048F853465A46C01A914110D38E
:1002100011461846224600F02FF82D1A67EB010808
:100220004F4622460120002100F026F817EB000976
:100230004E41201EA4F10104DFDC484631462A4627
:100240004346BDE8F09FC1F30A5210B5C1F3130154
:1002500040F2FF3341F480119A4201DA002010BDD0
:1002600040F233439A42A2F2334203DC524200F09E
:1002700012F810BD904010BD202A04DB203A00FA8D
:1002800002F1002070479140C2F1200320FA03F3ED
:10029000194390407047202A04DB203A21FA02F0EB
:1002A0000021704721FA02F3D040C2F120029140B0
:1002B0000843194670470000064C074D06E0E06809
:1002C00040F0010394E8070098471034AC42F6D39D
:1002D000FFF770FFBC0E0008DC0E0008FEE7704759
:1002E00070B54379012B1AD00126467102230371A0
:1002F00005682C6840F6FE7393409C43D1E90031B9
:100300000B43934023432B6001680B68C024944047
:10031000A3430B60067100214171084670BD0220A5
:1003200070BD70B5040003D02079002510B105E040
:10033000012070BD6571204600F008F80220207190
:10034000256101202071002070BD000000B500680B
:100350000C4987B0884212D10B480021026842F054
:1003600000520260006800F00050059010200090DC
:100370000320CDE901016946044800F04DF807B0BB
:1003800000BD000000740040403802400000024000
:1003900018B5046800940068104421B1143000902E
:1003A0000360002018BD0830F9E730B54279012A12
:1003B00016D0012242710223037103681D6802FAFC
:1003C00001F425431D60002901680B680AD00C6800
:1003D00003F4802304F46014B3F5802F0FD015E0EC
:1003E000022030BD0C6803F0040304F03804042B31
:1003F0000CD1382C0AD14B6843F0010305E0B4F569
:10040000601F03D14B6843F002034B60027100216F
:100410004171084630BD00002DE9F84FDFF890B17A
:1004200000224FF001084FF0030A4FF00F090BF1C3
:10043000040E00BF0B6808FA02F42340A3426ED1F9
:100440004D68022D01D0122D0ED1D50800EB850C80
:10045000DCF820505607F70E09FA07F6B5430E6987
:10046000BE402E43CCF82060066855000F790AFA8A
:1004700005FC07F0030726EA0C06AF403743076088
:100480004E68012E05D0022E03D0112E01D0122E5F
:100490000ED18768CE6827EA0C07AE403E438660DF
:1004A0004668A6430C79C4F3001494403443446076
:1004B000C4688E6824EA0C04AE402643C6604C68CB
:1004C000E4006FD53B4C256845F4804525602468E1
:1004D00022F0030504F480440094374C2E19D6F81A
:1004E000084895072F0F09FA07F5AC43334DA8428A
:1004F00001D100252EE0324DA84201D1012529E08D
:10050000304DA84201D1022524E02F4DA84201D14F
:1005100003251FE02D4DA84202D104251AE041E039
:100520002B4DA84201D1052514E02A4DA84201D146
:1005300006250FE0284DA84201D107250AE0274DE6
:10054000A84201D1082505E0254DA84201D1092581
:1005500000E00A25BD402543C6F80858DBF80040F6
:100560005D464E689C43F60300D51C432C60DEF8C4
:10057000004075464E689C43B60300D51C432C6072
:100580000B4D08352C684E689C43F60200D51C4381
:100590002C60074D0C352C684E689C43B60200D584
:1005A0001C432C60521C102AFFF444AFBDE8F88FA6
:1005B000003C01404438024000300140000002404D
:1005C0000004024000080240000C024000100240FB
:1005D0000014024000180240001C024000200240AB
:1005E000002402400148806870470000000000209D
:1005F0000248816802781144816070470000002041
:100600000B4810B5016841F400710160016841F4C4
:1006100080610160016841F480710160032000F095
:100620008BF8002000F006F800F024F8002010BD40
:10063000003C024070B50D4D04464FF47A712878A5
:10064000B1FBF0F00A490968B1FBF0F000F027FBBC
:1006500048B9102C07D200222146501E00F04CF859
:1006600000206C6070BD012070BD00000000002003
:100670000C0000201F4808B5016841F4804101606A
:10068000006800F4804000901A48001F016841F0A3
:1006900080510160006800F080500090032000F05D
:1006A0004BF8002211466FF00B0000F025F80022F5
:1006B00011466FF00A0000F01FF8002211466FF09B
:1006C000090000F019F800221146501F00F014F83C
:1006D00000221146101F00F00FF800221146901E54
:1006E00000F00AF80022BDE808401146501E00F054
:1006F00003B8000044380240F0B40E4B1B680C46AF
:10070000C3F30223C3F10705042D00D90425191DE5
:10071000072901D2002300E0DB1E012606FA05F1BD
:10072000491E214099409E40761E16403143F0BC40
:1007300000F0D0BA0CED00E0064900F007020868AE
:100740004FF6FF03184040EA0220034A10430860B6
:10075000704700000CED00E00000FA052DE9F843B9
:100760001748016841F0805101600068154F00F0A2
:100770008050012600903E64FFF734FF05464FF499
:100780007A78114C05E000BFFFF72CFF401B404575
:100790000DD86068C003F7D57E64FFF723FF0546D8
:1007A000464607E0FFF71EFF401BB04202D9032078
:1007B000BDE8F88360688003F4D50020F8E7000006
:1007C0004038024000000E42007000402DE9F04722
:1007D0000E46050065D0DFF81481D8F80000F7B2A6
:1007E00000F00F00B04207D288F80070D8F800007F
:1007F00000F00F00B04254D128683D4C810712D55B
:10080000400703D5206840F4E050206028780007B6
:1008100003D5206840F4604020602068A96820F07B
:10082000F000084320602878C0072DD03049686860
:100830000839012812D0022813D0032811D00968E2
:10084000890700292DDA216821F003010143216085
:10085000FFF7C8FE814641F2883A0EE00968890335
:10086000EFE709688901ECE7FFF7BCFEA0EB09019F
:10087000514502D90320BDE8F0872068696800F07F
:100880000C00B0EB810FEFD1D8F80010404601F01A
:100890000F01B14207D90770006800F00F00B042A5
:1008A00001D00120E7E72878400705D52068E968EE
:1008B00020F4E050084320602878000706D520681F
:1008C000296920F4604040EAC100206000F01CF873
:1008D0002168084AC1F30311515CC8400649086009
:1008E0000020FFF7A7FE0020C5E70000003C024003
:1008F00008380240AC0E00080C00002001480068D7
:10090000704700000C000020154810B5006810F07A
:100910000C02144813D04110042A0FD0082A0ED11B
:100920000F4C241F2268236802F03F025B0207D5A8
:100930002068C0F38810A0FB010106E0084610BD46
:100940002168C1F38811A1FB00010023FFF74AFCD5
:100950002168C1F30141491C4900B0FBF1F010BD11
:10096000083802400024F4002DE9F84F050076D045
:100970002878DFF8F8B2BE4CC00749D0DBF8001089
:100980005846C1F38101012908D00068C0F38100F5
:1009900002280AD1201D0068400206D52068800385
:1009A00036D568680028E2D032E06868B0F5803F4C
:1009B00010D0B0F5A02F206810D020F48030206037
:1009C000206820F4802020606868A0B1FFF70AFE4C
:1009D00006460CE0206840F48030F4E740F48020C4
:1009E0002060F7E7FFF7FEFD801B642873D82068BE
:1009F0008003F7D50CE0FFF7F5FD064605E000BFE4
:100A0000FFF7F0FD801B6428F0D820688003F7D43E
:100A10002878DFF8608280074FF000093ED5DBF8C8
:100A20000010584611F00C0F09D00068C0F3810087
:100A300002280BD18D48001F0068400206D42068B0
:100A4000800715D5E868012809D111E0E868B8B138
:100A50000120C8F80000FFF7C5FD064605E002E1E9
:100A6000FFF7C0FD801B0228C0D820688007F7D59B
:100A70002068296920F0F80040EAC10020600DE0FC
:100A8000C8F80090FFF7AEFD064604E0FFF7AAFDA8
:100A9000801B02281FD820688007F7D42878000719
:100AA00022D5724E744869696C3671B101210160BA
:100AB000FFF798FD074604E0FFF794FDC01B0228EE
:100AC00009D830688007F7D50EE0C0F80090FFF72E
:100AD00089FD074605E083E0FFF784FDC01B02287F
:100AE0007ED830688007F7D42878400768D5DFF8CB
:100AF0007CA100270AF1380ADAF80000C0000BD404
:100B0000DAF8001041F08051CAF80010DAF800005D
:100B1000012700F080500090584E3068C00510D476
:100B2000306840F480703060FFF75CFD009005E0B5
:100B3000FFF758FD0099401A022851D83068C005C7
:100B4000F6D54A4EA868683601280FD005283068C7
:100B500010D020F001003060306820F004003060D8
:100B6000A868B8B1FFF73EFD00900FE0306840F094
:100B70000100F4E740F004003060F7E7FFF732FDD2
:100B80000099411A41F28830814264D83068800768
:100B9000F4D50EE0FFF726FD009007E0FFF722FDF9
:100BA0000099411A41F28830814254D83068800758
:100BB000F4D42FB1DAF8001021F08051CAF80010F7
:100BC000A869C0B3DBF80010C1F3810102294AD043
:100BD0000228484607D0C8F86000FFF703FD00E090
:100BE00039E005463AE04746C8F86000FFF7FAFCEE
:100BF000064604E0FFF7F6FC801B02282BD820688D
:100C00008001F7D4D5E907010843A96A1C4A4908BD
:100C100002EB01416A6A41EA8211084395F82C10FF
:100C200040EA01611148001F016001203866FFF7AA
:100C3000D9FC054605E014E0FFF7D4FC401B022870
:100C400009D820688001F7D50BE000BFFFF7CAFC88
:100C5000401B022802D90320BDE8F88F20688001DC
:100C6000F4D40020F8E70120F6E70000083802403D
:100C70000038024000004742800E474200700040AA
:100C80000000FFFF4FF0E0210428086903D020F0A6
:100C900004000861704740F00400FAE7704710B59F
:100CA000401EB0F1807F01D3012010BD4FF0E02441
:100CB00060610F21601700F00DF80020A06107208F
:100CC0002061002010BD10B5FFF7E8FF10BDFEE762
:100CD000FEE770470907090E002806DA00F00F004A
:100CE00000F1E02080F8141D704700F1E02080F84A
:100CF000001470477047704710B5FFF779FCBDE8E6
:100D00001040FFF7E0BF000030B5274893B0002542
:100D1000016841F080510160006800F0805011903E
:100D20002248016841F4404101600068022400F457
:100D300040401190012003901020049000940694EC
:100D40000820CDE90750B420CDE9090404200B9018
:100D50006846FFF709FE00B1FEE7FFF7FFFC00B1B0
:100D6000FEE70CA90F2081E831004FF4A0500F904E
:100D70004FF48050109005210CA8FFF727FD00B11B
:100D8000FEE7FFF7BBFD4FF47A71B0FBF1F0FFF720
:100D900086FF0420FFF776FF00221146501EFFF762
:100DA000ABFC13B030BD0000403802400070004082
:100DB0001048016841F4700101600F48016841F07A
:100DC000010101600C4A00210832116002680B4BDE
:100DD0001A400260031D0A4A1A60026822F4802247
:100DE000026005480C3001600249580680390860ED
:100DF0007047000088ED00E000380240FFFFF6FE7B
:100E000010300024FEE702E008C8121F08C1002AC3
:100E1000FAD170477047002001E001C1121F002A7B
:100E2000FBD170471CB5FFF7EBFBFFF76DFF1A48CE
:100E30000024016841F080010160016801F0800137
:100E40000091016841F0010101600068144900F05F
:100E500001000090114808600846FFF762FA00B1EF
:100E6000FEE70094002269460D480194FFF738FA26
:100E700000B1FEE79FED0B0B51EC100BFFF7E3F910
:100E8000C4B200210648FFF790FA23460822002149
:100E90000348FFF77DFAFEE7303802400074004057
:100EA000100000200000000000906A4000000000D8
:100EB000000000000102030406070809DC0E000818
:100EC0000000002010000000060E0008EC0E0008D4
:100ED0001000002018040000160E00080100000099
:0C0EE00010000000000000000024F400DE
:04000005080001AD41
:00000001FF
